:100000002AC1000053C1000051C100004FC10000CF
:100010004DC100004BC1000049C1000047C10000B4
:1000200045C1000043C1000041C100003FC10000C4
:100030003DC100003BC1000039C1000037C10000D4
:1000400035C100000C946D0B31C100002FC10000C0
:100050002DC100000C94DE1429C1000027C100004E
:1000600025C1000023C1000021C100001FC1000004
:100070001DC100001BC1000019C1000017C1000014
:100080000C941E1513C1000011C100000FC1000027
:100090000DC1000000002100240027002A002D00CF
:1000A0003000330000002200250028002B002E0025
:1000B00031003400000020002300260029002C001D
:1000C0002F003200010101010101010102020202BF
:1000D00002020202030303030303030304040404F0
:1000E00004040404050505050505050507070707BC
:1000F00007060606060102040810204080010204DB
:1001000008102040800102040810204080010204F1
:1001100008102040800102040810204080010204E1
:1001200008100102040800000000000000000000A8
:1001300000000502030400000000000000000000B1
:10014000000000000000000000060708000000009A
:100150000000000000000000407A10F35A00A07276
:100160004E18090010A5D4E80000E87648170000F2
:10017000E40B54020000CA9A3B000000E1F50500C0
:100180000080969800000040420F000000A0860109
:10019000000000102700000000E8030000000064D9
:1001A00000000000000A0000000000010000000044
:1001B000002C76D888DC674F0823DFC1DFAE59E119
:1001C000B1B796E5E3E453C63AE651997696E8E688
:1001D000C28426EB898C9B62ED407C6FFCEFBC9C5B
:1001E0009F40F2BAA56FA5F490055A2AF75C936B6D
:1001F0006CF9676DC11BFCE0E40D47FEF520E6B528
:1002000000D0ED902E0300943577050080841E0801
:100210000000204E0A000000C80C333333330F981F
:100220006E12831141EF8D2114893BE65516CFFEE6
:10023000E6DB18D1844B381BF77C1D901DA4BBE472
:1002400024203284725E228100C9F124ECA1E53DB4
:1002500027004C065E1611241FBECFEFD0E1DEBF93
:10026000CDBF11E0A0E0B1E0EEEAF2E300E00BBFA9
:1002700002C007900D92A437B107D9F71BBE12E058
:10028000A4E7B1E001C01D92A63FB107E1F712E07B
:10029000C6E5D2E004C02297FE010E941A19C235B9
:1002A000D107C9F70E94CA160C945519A9CEEF922E
:1002B000FF920F931F93F22FF02E47FD02C0E4E050
:1002C00001C0E4E1242F332727FD309537FF03C019
:1002D000309521953F4F4F2D512F0F2FEE2E03D2EA
:1002E0008F2D912F1F910F91FF90EF900895FB019B
:1002F000DC0102C001900D9241505040D8F70895A2
:10030000AEE0B0E0E6E8F1E00C942C190D891E890E
:1003100086E08C831A8309838FEF9FE79E838D830A
:100320009E01275E3F4FCE0101966F89788DA9010E
:100330000AD02F813885020F131FF80110822E96E4
:10034000E4E00C944819ABE0B0E0E9EAF1E00C9489
:100350001E193C012B015A01FC0117821682838170
:1003600081FD03C06FEF7FEFB9C19AE0892E1E01B6
:100370000894211C311CF3012381F20123FD859196
:1003800023FF81912F01882309F4A5C1853239F417
:1003900023FD859123FF81912F01853221F490E087
:1003A000B301F0D3E8CF982FFF24EE249924FFE186
:1003B000FF15D0F09B3269F09C3228F4903259F04E
:1003C000933291F40EC09D3249F0903369F441E0CC
:1003D00024C052E0F52A84E0F82A28C098E0F92ADF
:1003E00025C0E0E1FE2A22C0F7FC29C0892F8053F6
:1003F0008A3070F4F6FE05C0989C902C1124980E5B
:1004000015C0E89CE02C1124E80EF0E2FF2A0EC093
:100410009E3229F4F6FC5FC140E4F42A07C09C3602
:1004200019F450E8F52A02C0983649F4F20123FD88
:10043000959123FF91912F01992309F0B8CF892F2E
:100440008554833018F08052833038F444E050E013
:10045000A40EB51E5FE359830FC0933631F0933776
:1004600079F0933509F052C01FC0F501808189836E
:1004700042E050E0A40EB51E610101E010E011C0A1
:10048000F501C080D180F6FC03C06FEF7FEF02C0A2
:10049000692D70E042E050E0A40EB51EC60167D39E
:1004A0008C015FE7F52213C0F501C080D180F6FC16
:1004B00003C06FEF7FEF02C0692D70E042E050E0B3
:1004C000A40EB51EC60148D38C0150E8F52AF3FEF0
:1004D00006C018C080E290E0B30154D3EA948E2D98
:1004E00090E008171907B0F30DC0F601F7FC8591ED
:1004F000F7FE81916F0190E0B30144D3E110EA94DB
:10050000015010400115110581F7E2C0943611F039
:10051000993661F5F7FE08C0F501208131814281ED
:10052000538184E090E00AC0F501808191819C01B3
:10053000442737FD4095542F82E090E0A80EB91E65
:100540009FE6F92257FF09C05095409530952195B7
:100550003F4F4F4F5F4FE0E8FE2ACA01B901A101AA
:100560002AE030E03BD3D82ED2183FC0953729F48B
:100570001F2D1F7E2AE030E01DC01F2D197F9F36E2
:1005800061F0903720F4983509F0A5C00FC090377E
:1005900039F0983709F09FC004C028E030E00AC065
:1005A000106114FD146020E130E004C014FD1660F9
:1005B00020E132E017FF08C0F5016081718182817E
:1005C000938144E050E008C0F50180819181BC0135
:1005D00080E090E042E050E0A40EB51EA101FED202
:1005E000D82ED2188FE7F82EF122F6FE0BC05EEF60
:1005F000F522D91438F4F4FE07C0F2FC05C08FEEE2
:10060000F82202C01D2D01C0192DF4FE0DC0FE01FF
:10061000ED0DF11D8081803319F499EEF92208C0A7
:100620001F5FF2FE05C003C08F2D867809F01F5FA3
:100630000F2DF3FC13C0F0FE0EC01E1510F09D2C04
:100640000AC09D2C9E0C911A1E2D05C080E290E0E0
:10065000B30198D21F5F1E15C8F304C01E1510F415
:10066000E11A01C0EE2404FF0EC080E390E0B30164
:1006700089D202FF1BC001FD03C088E790E00EC0D5
:1006800088E590E00BC0802F867881F001FF02C0E2
:100690008BE201C080E2F7FC8DE290E0B30172D200
:1006A00005C080E390E0B3016DD29A94D914C8F3E9
:1006B000DA94F101ED0DF11D808190E0B30162D279
:1006C000DD20B1F705C080E290E0B3015BD2EA948F
:1006D000EE20C9F750CEF30166817781CB012B96CE
:1006E000E2E10C943A19A9E0B0E0E9E7F3E00C94F8
:1006F00022196A01122FA02EBE2C2BE3201718F40A
:100700002CE3922E02C0902E9394AE014F5F5F4F68
:1007100027E0092D49D1BC018981E82EFF24C701BA
:1007200089709070019711F4ADE209C0B1FE02C06A
:10073000ABE205C0B0FC02C0A0E001C0A0E2E3FE55
:100740003BC0AA2311F423E001C024E0211710F0DC
:1007500020E002C0121B212FEB2CB4FE02C0322F6E
:100760000AC0F601322F80E202C081933150332358
:10077000E1F7C20ED11CAA2319F0F601A1936F0173
:10078000F6013196E2FE05C09EE4D6019C9381E419
:1007900004C09EE6D6019C9381E611968C939183CA
:1007A0003296DF01832F90E202C09D93815088230F
:1007B000E1F7E30FF11D40C0E2FE42C0AA2311F4AD
:1007C00023E001C024E0211710F020E002C0121B3A
:1007D000212FEB2CB4FE02C0922F0AC0F601922FFB
:1007E00080E202C0819391509923E1F7C20ED11C9F
:1007F000AA2319F0F601A1936F01F6013196E2FEEA
:1008000008C089E4D6018C938EE411968C9386E41B
:1008100007C089E6D6018C938EE611968C9386E606
:1008200081833296DF01892F20E202C02D9381500F
:100830008823E1F7E90FF11D10822EEF3FEFAFC0E3
:10084000161617061CF041E050E003C0AB014F5FE5
:100850005F4FAA2019F480E090E003C08A2D90E059
:10086000019620E030E0AA2311F021E030E0240FCF
:10087000351F280F391F812F90E02817390714F0F2
:1008800020E002C0121B212F4B2D50E0CA018071C5
:100890009070B4FC0DC0B3FC0BC0F601322F40E2E7
:1008A00002C0419331503323E1F7C20ED11C01C085
:1008B000322FAA2319F0F601A1936F01892B11F0B1
:1008C000132F0AC0F601132F80E302C08193115049
:1008D0001123E1F7C30ED11C092D060FBA8090E158
:1008E000892E912C8E209F20E4FE04C0F1E3BF16D8
:1008F00009F40150101614F001E003C0093008F0AB
:1009000008E09B0177FF02C020E030E0CB010196B8
:10091000821B930BFE013196E80FF91F8EE2F82E31
:100920003B01601A71088A2D90E044275527481B27
:10093000590B8FEF2F3F380719F4D601FD926D0147
:10094000621773072CF06216730614F4808101C0DD
:1009500080E32150304031962417350724F0D6012A
:100960008D936D01E6CF2617370749F4B5E3BB1524
:1009700028F0BB1621F48114910409F481E3F601F7
:100980008193D601812F90E202C09C9381501196F1
:100990008823D9F7E10FF11D108220E030E0C90172
:1009A0002996EEE00C943E19283008F027E0332712
:1009B000DA01990F311D87FD91600096610571057F
:1009C00039F432602E5F3D9330E32A95E1F70895C4
:1009D0009F3F30F080387105610509F03C5F3C5F56
:1009E0003D93913008F08068911DDF93CF931F9362
:1009F0000F93FF92EF92192F987F9695E92F969576
:100A00009695E90FFF27EF54FE4F99273327EE24E1
:100A1000FF24A701E70105900894079428F4360FF6
:100A2000E71EF81E491F511D660F771F881F991F6B
:100A30000694A1F70590079428F4E70EF81E491FC5
:100A4000561FC11D770F881F991F661F0694A1F7B7
:100A50000590079428F4F80E491F561FC71FD11D93
:100A6000880F991F661F771F0694A1F705900794BA
:100A700020F4490F561FC71FD81F990F661F771FF5
:100A8000881F0694A9F784911095177041F0D695A8
:100A9000C79557954795F794E7941A95C1F7E7E5F9
:100AA000F1E06894159015913591659195910590B7
:100AB0007FE27395E118F10A430B560BC90BD0097D
:100AC000C0F7E10CF11E431F561FC91FD01D7EF455
:100AD000703311F48A95E6CFE894015030F0080F96
:100AE0000AF40027021708F4202F2395022F7A33E7
:100AF00028F079E37D932A95E9F710C07D932A9534
:100B000089F6069497956795379517951794E11888
:100B1000F10A430B560BC90BD00998F023957E912F
:100B200073957A3308F070E37C932013B8F77E91C5
:100B300070617D9330F0839571E37D9370E32A9526
:100B4000E1F71124EF90FF900F911F91CF91DF916A
:100B5000992787FD90950895FC010590615070409C
:100B60000110D8F7809590958E0F9F1F0895FC0176
:100B70006150704001900110D8F7809590958E0FCC
:100B80009F1F08950F931F93CF93DF938C01EB0169
:100B90008B8181FF1BC082FF0DC02E813F818C8124
:100BA0009D812817390764F4E881F9810193F9835D
:100BB000E88306C0E885F985802F0995892B31F4F3
:100BC0008E819F8101969F838E8302C00FEF1FEF5E
:100BD000C801DF91CF911F910F910895FA01AA27C3
:100BE000283051F1203181F1E8946F936E7F6E5F70
:100BF0007F4F8F4F9F4FAF4FB1E03ED0B4E03CD01E
:100C0000670F781F891F9A1FA11D680F791F8A1F00
:100C1000911DA11D6A0F711D811D911DA11D20D067
:100C200009F468943F912AE0269F11243019305D21
:100C30003193DEF6CF010895462F4770405D419312
:100C4000B3E00FD0C9F7F6CF462F4F70405D4A335F
:100C500018F0495D31FD4052419302D0A9F7EACF27
:100C6000B4E0A6959795879577956795BA95C9F756
:100C700000976105710508959B01AC010A2E069449
:100C80005795479537952795BA95C9F7620F731F02
:100C9000841F951FA01D0895CF92EF920F938CE9AA
:100CA00091E065E246E22BE00CE05DE0E52E3EE0FF
:100CB000C32EDFD40F91EF90CF900895682F84E278
:100CC00070E0B4C5882339F08FE061E03AD681E066
:100CD0008093B00108958FE060E033D61092B001A8
:100CE000089518C08091B0018823A1F03ED52091CD
:100CF000B1013091B2014091B3015091B401621B36
:100D0000730B840B950B685873418040904010F032
:100D100080E0D8DF86EC91E067E871E00E94E70EA2
:100D2000882301F718C08091B0018823A1F01DD558
:100D30002091B1013091B2014091B3015091B401C1
:100D4000621B730B840B950B685873418040904075
:100D500010F080E0B7DF86EC91E067E871E00E9478
:100D60002314813001F390E0823009F491E0892F5F
:100D700008956F927F928F929F92AF92BF92CF927F
:100D8000DF92EF92FF920F931F93DF93CF93CDB734
:100D9000DEB7EA970FB6F894DEBF0FBECDBFA1DF76
:100DA000882309F069C2E1D46093B1017093B20164
:100DB0008093B3019093B4018091B001882311F422
:100DC0008FEF80DF8091AF01882399F120918A0114
:100DD00090918B0128A340918E01842F8295807F72
:100DE000892B89A3822793E589278F8F9E012E5D0A
:100DF0003F4FE4E9F1E0C901BF0150E078DA20910A
:100E00008E01E22FFF27E7FDF0953396CE014F9636
:100E1000E80FF91F8FEF02C081932F5F2830E4F3B2
:100E200080ED92E0BE01615E7F4F4BE050E00E949A
:100E3000E91680915701882309F41EC296D43B011C
:100E40004C0180918A0190918B0121E08B3D9207AA
:100E500009F016C18091B5019091B601A091B7013A
:100E6000B091B801A4019301281B390B4A0B5B0B0D
:100E70002B3F31054105510508F4FEC160919701F2
:100E800070E0F6E075956795FA95E1F72091960187
:100E900030E0220F331F220F331F622B732B882762
:100EA00077FD8095982F0E947E1720E030E040E08B
:100EB0005FE30E943218162F072FF82EE92EAC019F
:100EC000CB01DA0180937A0190937B01A0937C019E
:100ED000B0937D0180919501282F30E055E0359544
:100EE00027955A95E1F78091940190E043E0880FAF
:100EF000991F4A95E1F7282B392B32FD386FB9013C
:100F0000882777FD8095982F0E947E1720E030E09B
:100F100040E05FEB0E94321860937E0170937F0186
:100F20008093800190938101212F302F4F2D5E2DD2
:100F3000B901CA0145E021E08E010F5F1F4FB7D90B
:100F400060917E0170917F0180918001909181017B
:100F500045E021E08E01055F1F4FA9D960917E0118
:100F600070917F01809180019091810120917A019F
:100F700030917B0140917C0150917D010E9432189B
:100F800020E030E04AE754E40E9414177B018C0112
:100F900020E030E040E251E40E942E1888232CF03B
:100FA000C801B70144E021E00EC0C801B70120E04C
:100FB00030E040E251EC0E941017181644F0C801CE
:100FC000B70144E020E08E010B5E1F4F16C0C80140
:100FD000B70120E030E040E050E00E941017FE0131
:100FE000759688232CF4C801B70144E021E004C0C1
:100FF000C801B70144E022E08F0159D94DB75EB76F
:101000004A5050400FB6F8945EBF0FBE4DBFEDB7CB
:10101000FEB731968E01065D1F4FADB7BEB7129673
:101020001C930E93119780E091E093838283CE010D
:10103000019695838483CE010B9697838683CE0198
:101040004596918780875CD92DB73EB7265F3F4F85
:101050000FB6F8943EBF0FBE2DBF8CE991E060E063
:1010600041E036D28CE991E0B8010E940817609205
:10107000B5017092B6018092B7019092B801FCC0A0
:1010800035E0893B930759F48091940190E0B3E0F7
:1010900095958795BA95E1F780938201EDC08C5BB9
:1010A000954009F0E9C08091B9019091BA01A091F1
:1010B000BB01B091BC01A4019301281B390B4A0B61
:1010C0005B0B2B3F31054105510508F4D5C06091FC
:1010D000950170E0A6E075956795AA95E1F72091D6
:1010E000940130E0220F331F220F331F622B732B2A
:1010F000709375016093740180E090E00E947C170A
:101100007B018C0120E030E84CE853E40E94141786
:1011100020E030E048EC52E40E94321860937601FF
:10112000709377018093780190937901C801B7019A
:1011300023EC35E745E952E40E94321820E030E024
:101140004AE754E40E9414175B016C0120E030E090
:1011500040E251E40E942E18882354F0EBE0EE2E7A
:10116000F12CEC0EFD1EC601B50144E021E013C0D8
:10117000C601B50120E030E040E85FE30E942E1890
:101180007BE0E72EF12CEC0EFD1E882344F0C60117
:10119000B50144E022E087018AD867010BC0C6018F
:1011A000B50144E023E0870182D86CE0C62ED12C43
:1011B000CC0EDD1EE0907601F09077010091780171
:1011C00010917901BB24C801B70120E030E048EC60
:1011D00052E40E941017882314F4BB24B394C8016E
:1011E000B70144E02B2D7E010894E11CF11C87011E
:1011F0005ED84DB75EB74C5050400FB6F8945EBF06
:101200000FBE4DBFEDB7FEB731968E01065D1F4F85
:10121000ADB7BEB712961C930E93119789E091E07B
:1012200093838283D582C4828091740190917501E9
:1012300097838683F186E086809182018287138678
:101240005FD82DB73EB7245F3F4F0FB6F8943EBF2F
:101250000FBE2DBF8CE991E060E040E039D18CE910
:1012600091E0B8010E9408176092B9017092BA012A
:101270008092BB019092BC01EA960FB6F894DEBF53
:101280000FBECDBFCF91DF911F910F91FF90EF90D7
:10129000DF90CF90BF90AF909F908F907F906F9096
:1012A0000895569855985E9A5D9A4E99FECF81E0C2
:1012B0008093D80086EC91E060E070E05FD586EC2A
:1012C00091E060E05FC50F931F938FE061E019D359
:1012D00084E261E016D38FEFF5DC8FEFEFDC84E082
:1012E00090E0909389018093880184E991E0909344
:1012F000900180938F010CE911E0C80160E142E0A8
:1013000020E019D1C80160E040E0E2D0C80167E107
:1013100071E00E940817C80162E271E00E9408179C
:10132000C80160E041E0D4D0C80167E271E00E94EA
:101330000817B7DFC80160E041E0CAD0C80167E321
:1013400071E00E94081780ED92E040E052EC61E00D
:1013500070E00E945E15C80160E041E0B9D0C801AC
:1013600067E471E00E9408171F910F9108950F9391
:101370001F938C01FC01848160E0E3D281E090E066
:1013800002D2F801848161E0DCD281E090E0FBD1FF
:10139000F801848160E0D5D284E690E0F4D11F9119
:1013A0000F910895CF92DF92EF92FF920F931F93C8
:1013B000CF93DF93D82EC92E282F392FC9018C0146
:1013C000C0E0D0E0E62EFF24F801858161E099D2EB
:1013D000B7010C2E02C0759567950A94E2F761700B
:1013E000F8018581AED221960F5F1F4FC830D1051D
:1013F00059F78D2D9C2DBBDFDF91CF911F910F9160
:10140000FF90EF90DF90CF900895CF92DF92EF9210
:10141000FF920F931F93CF93DF93D82EC92E282FBF
:10142000392FC9018C01C0E0D0E0E62EFF24F8017D
:10143000858161E066D2B7010C2E02C07595679573
:101440000A94E2F76170F80185817BD221960F5FE3
:101450001F4FC430D10559F78D2D9C2D88DFDF91AA
:10146000CF911F910F91FF90EF90DF90CF90089553
:101470001F93CF93DF93EC01162F8A81642F61D2E3
:101480008B818F3F11F060E05CD28D8584FF04C0BA
:10149000CE01612F87DF0CC0612F70E084E075956D
:1014A00067958A95E1F7CE01B0DFCE01612FADDF00
:1014B000DF91CF911F91089541E0DACF40E0D8CF7E
:1014C000FC016685862F846086876C60CF01F6CF2D
:1014D000DF93CF93CDB7DEB728970FB6F894DEBF72
:1014E0000FBECDBF9C01FE013196A2E6B1E088E0BF
:1014F0000D9001928150E1F7F9018189841710F470
:10150000482F4150E42FF0E0EE0FFF1FEC0FFD1FBE
:101510008181680F6068C901D1DF28960FB6F89401
:10152000DEBF0FBECDBFCF91DF91089561E0C6DF72
:1015300080ED97E028C1CF93DF93EC01423018F0A3
:101540008D8588608D87498B1A8A222329F0413046
:1015500019F48D8584608D8780E593EC14D18A81A0
:1015600060E0EFD18C8160E0ECD18B818F3F11F096
:1015700060E0E7D16D8564FD16C0CE0163E045DF14
:1015800084E991E100D1CE0163E03FDF84E991E19C
:10159000FAD0CE0163E039DF86E990E0F4D0CE01E5
:1015A00062E033DF11C06062CE0188DF84E991E13F
:1015B000EAD06D856062CE0181DF86E990E0E3D0FC
:1015C0006D856062CE017ADF6D856062CE0176DF67
:1015D00084E08E87CE0174DFCE01A8DF82E08F87A2
:1015E000CE0166E06BDFDF91CF9108956F927F921D
:1015F0008F92AF92CF92EF920F931F93DF93CF937F
:10160000CDB7DEB73C01162F842FF301428323832D
:101610000483E582C682A78280869D8591879E8508
:1016200092879F8593879889948761E06AD1F301B7
:1016300083818F3F11F061E064D1F301848161E027
:1016400060D1112319F0F301158603C080E1F30185
:101650008587C30160E141E020E06DDFCF91DF913C
:101660001F910F91EF90CF90AF908F907F906F90E0
:1016700008958F92AF92CF92EF920F931F93CF93D3
:10168000DF93DC01362F542F722F102FAE2C8C2CB1
:101690008CE591E011969C938E9300D000D0EDB72D
:1016A000FEB73196CDB7DEB719821182128213824E
:1016B000CD0161E0432F2FEF052FE72EC12E96DFDE
:1016C0000F900F900F900F90DF91CF911F910F917E
:1016D000EF90CF90AF908F9008951F920F920FB61A
:1016E0000F9211242F933F938F939F93AF93BF93A8
:1016F0008091C1019091C201A091C301B091C40138
:101700003091C5010196A11DB11D232F2D5F2D37ED
:1017100020F02D570196A11DB11D2093C501809386
:10172000C1019093C201A093C301B093C401809101
:10173000BD019091BE01A091BF01B091C001019681
:10174000A11DB11D8093BD019093BE01A093BF0167
:10175000B093C001BF91AF919F918F913F912F9115
:101760000F900FBE0F901F9018958FB7F89420918F
:10177000C1013091C2014091C3015091C4018FBF9A
:10178000B901CA010895019759F0FC01EE0FFF1F3E
:10179000EE0FFF1F32978FB7F8943197F1F78FBF95
:1017A0000895789484B5886084BD84B5806484BDD0
:1017B00084B5826084BD84B5816084BDEEE6F0E0CE
:1017C000808181608083E1E8F0E0808182608083B5
:1017D000808181608083E0E8F0E0808181608083A7
:1017E000E1E9F0E080818260808380818160808394
:1017F000E0E9F0E0808181608083E0EBF0E08081CF
:1018000084608083808180648083EAE7F0E0808167
:101810008460808380818260808380818160808316
:101820008081806880831092C10008951F93CF93B8
:10183000DF93182FEB0161E064D0E12FF0E0EA5D67
:10184000FE4F8491823051F48091800080688093B3
:101850008000D0938900C09388004FC0833051F43A
:1018600080918000806280938000D0938B00C09331
:101870008A0043C0843051F4809180008860809356
:101880008000D0938D00C0938C0037C0853041F428
:101890008091B00080628093B000C093B3002DC0EF
:1018A000863051F480919000806880939000D093AE
:1018B0009900C093980021C0873051F48091900026
:1018C000806280939000D0939B00C0939A0015C0D3
:1018D000883051F480919000886080939000D0937C
:1018E0009D00C0939C0009C0C038D1051CF4812F15
:1018F00060E002C0812F61E024D0DF91CF911F9181
:101900000895282F30E0C9018B509F4FFC0194911E
:101910002C533F4FF9018491882391F0E82FF0E098
:10192000EE0FFF1FEC56FF4FA591B491662329F4EB
:101930008C91909589238C9308958C91892B8C930D
:101940000895482F50E0CA018A5D9E4FFC01249102
:10195000CA018B509F4FFC0194914C535F4FFA0189
:101960003491332309F443C0222379F1223021F446
:10197000809180008F770BC0233021F4809180000C
:101980008F7D05C0243031F480918000877F809363
:1019900080001BC0253031F48091B0008F7D809392
:1019A000B00013C0263021F4809190008F770BC0D7
:1019B000273021F4809190008F7D05C0283029F4D4
:1019C00080919000877F80939000E32FF0E0EE0FEE
:1019D000FF1FEC55FF4FA591B491662329F48C911C
:1019E000909589238C9308958C91892B8C930895DD
:1019F000FC010190F081E02DE83CF105E1F0E93CCB
:101A0000F10548F4E436F10591F0ED37F10589F080
:101A1000EF2B39F1089581E0E43FF807B1F083E05E
:101A2000E83EF807A1F0EA3FF10509F506C082E1BA
:101A300005C08EE003C088E001C086E08093E2002C
:101A40008CE08093E30087E309C086E001C082E078
:101A50008093E20084E08093E30083E18093E400DC
:101A600008951092E2001092E3001092E4000895AD
:101A70006F927F928F929F92AF92BF92CF92DF929E
:101A8000EF92FF920F931F93DF93CF930F92CDB7F7
:101A9000DEB7662361F4CC24C394B3E0A8E062E02F
:101AA00072E0FF2411E000E0EE24E39455C0809141
:101AB000E2008E7719F4CC24C39409C08091E2002F
:101AC00090E08E77907095958795C82EC3948091FD
:101AD000E3008E7011F4B1E009C08091E30090E062
:101AE0008E70907095958795B82FBF5F8091E400B8
:101AF0008E70833010F462E009C08091E40090E0C1
:101B00008E70907095958795682F6F5F8091E40037
:101B10008077813110F472E00CC08091E40090E095
:101B20008077907044E0959587954A95E1F7782FF6
:101B30007F5F8B2F90E0860F911D870F911D089777
:101B400014F4A8E004C0AB2FAF5FA60FA70FFF24CB
:101B5000F39410E001E0EE2490E0892F8295807FDD
:101B60008093ED00EEEEF0E01192E83FF105E1F731
:101B70009F5F9F3091F7DD2466247724BB2430E8F3
:101B8000832E2AE0A22E99249A9481E0E81609F087
:101B900045C0E092D8000894611C711C8C2D8150C6
:101BA000880F8093E200472F50E09A0135952795E2
:101BB0002150304085E0220F331F8A95E1F78B2FAB
:101BC00090E00197880F991F282B2093E300415044
:101BD0005040E4E0440F551FEA95E1F7862F90E06E
:101BE0000197880F991F482B41604093E400C3017F
:101BF00023E0969587952A95E1F78093E50010926A
:101C0000ED001092EE008092EF00A092D80080913B
:101C1000D90082FFFCCF9092DA00DD24E1E0E98375
:101C20003AC08091EE0090E085FF10C08091EF00F7
:101C30008F738093EF001092D8008091D90082FDBD
:101C4000FCCF198210E0BB24B39482C08F719070D6
:101C5000892B11F010E001E08091DA00282F30E0AC
:101C600085FF11C0DD2041F48091DA00806280930D
:101C7000DA00DD24D39407C08091DA00806280937B
:101C8000DA0010E001E02F703070232B21F010E01B
:101C9000EE24E39403C0113021F257C0F1106F5FBE
:101CA0006930F8F07830E8F0A93111F0AF5F05C085
:101CB000F0E4CF1621F0C394A8E062E014C0809154
:101CC000EF008F738093EF001092D8008091D900BD
:101CD00082FDFCCFA8E062E072E0FF241982BB2401
:101CE00037C0663010F4762F0AC0262F30E0872FD9
:101CF00090E001968217930714F47F5F672FB72F48
:101D0000B60FB095BA0F8B2F8150883040F6472F11
:101D100050E0262F30E02F5F3F4F2B0F311DCA01BF
:101D2000880F991F880F991F821793070CF4B7CF5C
:101D3000CA01880F991F840F951F281739070CF4C3
:101D4000AECFFF24F39411E003C0013009F4A6CF15
:101D500000E08981813009F418CF8B2D0F90CF914D
:101D6000DF911F910F91FF90EF90DF90CF90BF9088
:101D7000AF909F908F907F906F900895FC0171833A
:101D800060830895FC0180819181892B29F4CF0122
:101D90006FDE882331F4089581E08093D800CF016D
:101DA00027DE90E0892F8295807F8093ED00EEEE14
:101DB000F0E01192E83FF105E1F79F5F9F3091F766
:101DC0008091D80082608093D80081E00895DF93ED
:101DD000CF9300D000D0CDB7DEB7AB01DB011196B9
:101DE0008D919C9112970C97A9F41A968C911A9741
:101DF000803669F48C918295807F8093ED0080918C
:101E0000EF008F738093EF001092EE001C92FA01A6
:101E1000128642C13091ED0090E0292F2295207F5B
:101E20002093ED008091EF00807C29F43093ED0049
:101E30009F3F39F4FDC49F5F9F3079F73093ED00E9
:101E4000F7C480E6DA011A968C931A979C93209334
:101E5000ED00EEEEF0E01192E83FF105E1F7FA0156
:101E6000818192818630910509F4E5C18730910521
:101E7000B4F48330910509F411C1843091053CF428
:101E80008130910539F1029709F0CEC491C08430B8
:101E9000910509F455C1059709F0C6C48CC1893074
:101EA000910509F433C38A30910544F487309105D4
:101EB00009F408C2089709F0B7C499C28A3091059D
:101EC00021F00B9709F0B0C40BC4DA0117966C919E
:101ED00090E0BCC3FA0184853396882391F1328166
:101EE000932F9295969597708381880F880F880F0E
:101EF000980F9093F3002181822F829586958770A9
:101F0000330F330F330F830F8093F200DA011396F0
:101F10009C91892F829586958770220F220F220F20
:101F2000820F8093F100990F990F990F9093F00011
:101F30008091EF0080618093EF00FA01278190E0AB
:101F400022C0DA0113962C91922F9695969596952C
:101F500081818295880F807E980F9093F30022955F
:101F6000220F207E2093F2008091EF008F7EE3CF3E
:101F7000DA011896ED91FC911997E90FF11D808116
:101F80008093FA009F5F921798F3FA018385882364
:101F900021F08091F000846003C08091F0008B7F7D
:101FA0008093F0008091EF00282B2093EF006AC00F
:101FB000DA011C968C91FA013396882391F13281D3
:101FC000932F9295969597708381880F880F880F2D
:101FD000980F9093F3002181822F829586958770C8
:101FE000330F330F330F830F8093F200FA01938185
:101FF000892F829586958770220F220F220F820FDC
:102000008093F100990F990F990F9093F0008091B0
:10201000EF0080618093EF00DA0117962C9190E039
:1020200022C0DA0113962C91922F9695969596954B
:1020300081818295880F807E980F9093F30022957E
:10204000220F207E2093F2008091EF008F7EE2CF5E
:10205000DA011896ED91FC911997E90FF11D808135
:102060008093FA009F5F921798F3FA01138680918C
:10207000F0008B7F8093F0008091EF009781892B97
:102080008093EF008091EF008F738093EF00809139
:10209000EF0080648093EF0080E0CEC3DA011C96ED
:1020A0008C91FA013396882361F13281932F9295B6
:1020B000969597708381880F880F880F980F90935B
:1020C000F3002181822F829586958770330F330F1D
:1020D000330F830F8093F200FA019381892F829549
:1020E00086958770220F220F220F820F8093F100B6
:1020F000990F990F990F9093F0008091EF008061F4
:1021000016C0DA0113962C91922F96959695969576
:1021100081818295880F807E980F9093F30022959D
:10212000220F207E2093F2008091EF008F7E80931B
:10213000EF0081E0FA0183878091F00084609ACFFC
:1021400019821A821B821C82FE0131963281932FE2
:102150009295969597708381880F880F880F980FB6
:102160009093F7002181822F829586958770330F97
:10217000330F330F830F8093F6009981892F829557
:1021800086958770220F220F220F820F8093F50011
:10219000990F990F990F9093F4008091EF00DA0155
:1021A00017969C91892B8093EF008091F4008B7F90
:1021B0008093F40091C219821A821B821C82FE0154
:1021C00031963281932F9295969597708381880FDF
:1021D000880F880F980F9093F7002181822F8295A6
:1021E00086958770330F330F330F830F8093F6007C
:1021F0009981892F829586958770220F220F220F51
:10220000820F8093F500990F990F990F9093F40026
:102210008091EF00FA019781892B8093EF0013865C
:102220008091F40084608093F4008091F0008B7FB3
:102230008093F00051C219821A821B821C82FE0117
:1022400031963281932F9295969597708381880F5E
:10225000880F880F980F9093F7002181822F829525
:1022600086958770330F330F330F830F8093F600FB
:102270009981892F829586958770220F220F220FD0
:10228000820F8093F500990F990F990F9093F400A6
:102290008091EF00DA0117969C911797892B809314
:1022A000EF0081E01B968C938091F4008460809312
:1022B000F4008091F00084608093F0008091EF0042
:1022C0008F7D08C2FA0184853396882369F13281B3
:1022D000932F9295969597708381880F880F880F1A
:1022E000980F9093F3002181822F829586958770B5
:1022F000330F330F330F830F8093F200DA011396FD
:102300009C91892F829586958770220F220F220F2C
:10231000820F8093F100990F990F990F9093F0001D
:102320008091EF00806116C0DA0113962C91922FF4
:1023300096959695969581818295880F807E980FC7
:102340009093F3002295220F207E2093F20080913B
:10235000EF008F7E8093EF008FEF9FEFAFEFBFEF27
:1023600089839A83AB83BC83FE0131963281932F9C
:102370009295969597708381880F880F880F980F94
:102380009093F7002181822F829586958770330F75
:10239000330F330F830F8093F6009981892F829535
:1023A00086958770220F220F220F820F8093F500EF
:1023B000990F990F990F9093F4008091EF00FA0113
:1023C0009781892B8093EF008091F4008B7F80931D
:1023D000F4008091F40081608093F4008091EF001C
:1023E0008F738093EF008091EF00806853CEDA0105
:1023F0001C968C91FA013396882361F13281932FD8
:102400009295969597708381880F880F880F980F03
:102410009093F3002181822F829586958770330FE8
:10242000330F330F830F8093F200FA019381892FCA
:10243000829586958770220F220F220F820F80933C
:10244000F100990F990F990F9093F0008091EF0090
:10245000806116C0DA0113962C91922F969596956D
:10246000969581818295880F807E980F9093F300D6
:102470002295220F207E2093F2008091EF008F7E24
:102480008093EF008FEF9FEFAFEFBFEF89839A83C9
:10249000AB83BC83FE0131963281932F9295969542
:1024A00097708381880F880F880F980F9093F7009B
:1024B0002181822F829586958770330F330F330FDA
:1024C000830F8093F6009981892F82958695877076
:1024D000220F220F220F820F8093F500990F990F80
:1024E000990F9093F4008091EF00FA019781892B66
:1024F0008093EF0013868091F40084608093F40051
:102500008091F0008B7F8093F00063CFDA011C96FE
:102510008C91FA013396882361F13281932F929541
:10252000969597708381880F880F880F980F9093E6
:10253000F3002181822F829586958770330F330FA8
:10254000330F830F8093F200FA019381892F8295D4
:1025500086958770220F220F220F820F8093F10041
:10256000990F990F990F9093F0008091EF0080617F
:1025700016C0DA0113962C91922F96959695969502
:1025800081818295880F807E980F9093F300229529
:10259000220F207E2093F2008091EF008F7E8093A7
:1025A000EF008FEF9FEFAFEFBFEF89839A83AB838D
:1025B000BC83FE0131963281932F92959695977048
:1025C0008381880F880F880F980F9093F7002181DF
:1025D000822F829586958770330F330F330F830FC9
:1025E0008093F6009981892F829586958770220FB6
:1025F000220F220F820F8093F500990F990F990FE8
:102600009093F4008091EF00FA019781892B8093D9
:10261000EF0081E083878091F40084608093F40070
:102620008091F00084608093F0008091EF008F7DB6
:102630008093EF00CECEDA011896ED91FC911997B8
:10264000E90FF11D80818093FA009F5F961798F340
:1026500019821A821B821C82FE0131963281932FCD
:102660009295969597708381880F880F880F980FA1
:102670009093F7002181822F829586958770330F82
:10268000330F330F830F8093F6009981892F829542
:1026900086958770220F220F220F820F8093F500FC
:1026A000990F990F990F9093F4008091EF00682B88
:1026B0006093EF0081E0FA0183878091F4008460E9
:1026C0008093F4008091F00084608093F00080910A
:1026D000EF0080628093EF008091F4008E7F7CCECB
:1026E000DA011C968C91FA013396882391F132819C
:1026F000932F9295969597708381880F880F880FF6
:10270000980F9093F3002181822F82958695877090
:10271000330F330F330F830F8093F200FA0193814D
:10272000892F829586958770220F220F220F820FA4
:102730008093F100990F990F990F9093F000809179
:10274000EF0080618093EF00DA0117966C9190E0C2
:1027500022C0DA0113962C91922F96959695969514
:1027600081818295880F807E980F9093F300229547
:10277000220F207E2093F2008091EF008F7EE2CF27
:10278000DA011896ED91FC911997E90FF11D8081FE
:102790008093FA009F5F961798F38FEF9FEFAFEF4C
:1027A000BFEF89839A83AB83BC83FE01319632816C
:1027B000932F9295969597708381880F880F880F35
:1027C000980F9093F7002181822F829586958770CC
:1027D000330F330F330F830F8093F6009981892FC6
:1027E000829586958770220F220F220F820F809389
:1027F000F500990F990F990F9093F4008091EF00D5
:10280000682B6093EF0081E0FA0183878091F400E8
:1028100084608093F4008091F00084608093F000E5
:102820008091EF00806204CFDA011A961C9234CCBA
:102830008FE1FA0182878FEF0F900F900F900F902A
:10284000CF91DF910895DB011A968C911A97882316
:1028500009F4B0C08F3109F4ADC08F3F09F4AAC0AC
:102860008C918295807F8093ED008091EF00807C39
:1028700009F496C08091EE00382F307E303269F036
:10288000303409F482C0303A41F0382F3F7109F4F6
:1028900093C0332309F490C084C08091EF008F70FF
:1028A00017968C93179718964D915C91199720E085
:1028B00006C08091FA00E40FF51F80832F5F80919E
:1028C000EF00E22FF0E090E08F709070E817F907CA
:1028D00084F38091F00090E08470907095958795D6
:1028E000959587951B968C931B978091EF00FD0122
:1028F000339684FF30C081E01C968C931C978091A6
:10290000F30090E043E0959587954A95E1F783833E
:102910009091F2008091F300969596959695829508
:10292000880F807E980F92839091F1008091F20041
:102930009695969596958295880F807E980F9183AF
:102940009091F0008091F1009695969596958295DC
:10295000880F807E16C01C961C921C978091F300F5
:1029600090E025E0959587952A95E1F781839091F0
:10297000F2008091F300929596959770880F880FDA
:10298000880F980F13969C9313971A963C938091F7
:10299000EF008F738093EF001092EE0080E00895B7
:1029A0003FEF1A963C938091EF008F738093EF0076
:1029B0001092EE0082E0089581E008951F920F9238
:1029C0000FB60F920BB60F9211242F933F934F9394
:1029D0005F936F937F938F939F93AF93BF93EF9387
:1029E000FF934091C600E0914802F0914902CF0167
:1029F000019660E870E0B8D39C0180914A02909102
:102A00004B022817390739F0E853FE4F40833093C3
:102A1000490220934802FF91EF91BF91AF919F919E
:102A20008F917F916F915F914F913F912F910F9077
:102A30000BBE0F900FBE0F901F9018951F920F9214
:102A40000FB60F920BB60F9211242F933F934F9313
:102A50005F936F937F938F939F93AF93BF93EF9306
:102A6000FF934091CE00E091CC02F091CD02CF01D6
:102A7000019660E870E078D39C018091CE0290913D
:102A8000CF022817390739F0E45BFD4F40833093BC
:102A9000CD022093CC02FF91EF91BF91AF919F9116
:102AA0008F917F916F915F914F913F912F910F90F7
:102AB0000BBE0F900FBE0F901F9018955F926F92F4
:102AC0007F928F929F92AF92BF92CF92DF92EF92BE
:102AD000FF920F931F93CF93DF93EC013A014B01C9
:102AE000413482E458078FE0680780E078070CF0F3
:102AF00075C060E874E88EE190E0A401930169D3A9
:102B00002150304040405040CA01B90122E030E03D
:102B100040E050E05ED359016A01A601950120957D
:102B200030954095509594E0220F331F441F551F58
:102B30009A95D1F760E074E284EF90E04AD3CA013D
:102B4000B9012FEF30E040E050E0EFD2A401930153
:102B500040D3C90181509F4F181619061CF4522EFC
:102B60005A9403C055245394521A60E079E08DE3DF
:102B700090E0A40193012DD32150304040405040BB
:102B8000CA01B90122E030E040E050E022D32095B4
:102B900030954095509583E0220F331F441F551FF9
:102BA0008A95D1F760E074E284EF90E012D3CA0115
:102BB000B9012FEF30E040E050E0B7D2A40193011B
:102BC00008D3C90181509F4F181619061CF4822F93
:102BD000815002C081E0821B8515F0F4E885F985FB
:102BE00081E090E00A8802C0880F991F0A94E2F7FA
:102BF000808360E079E08DE390E0A4019301E9D265
:102C00002150304040405040CA01B90122E030E03C
:102C100040E050E0DED204C0E885F98510829501DD
:102C2000EC81FD813083EE81FF812083EA85FB8585
:102C3000208141E050E0CA010E8402C0880F991F34
:102C40000A94E2F7282B2083EA85FB852081CA01BC
:102C50000F8402C0880F991F0A94E2F7282B208363
:102C6000EA85FB858081088802C0440F551F0A94BD
:102C7000E2F7842B8083DF91CF911F910F91FF901A
:102C8000EF90DF90CF90BF90AF909F908F907F900C
:102C90006F905F900895FC01A085B18521898C918A
:102CA00090E0022E02C0959587950A94E2F780FF86
:102CB000F6CF0484F585E02D608308952EE631E09B
:102CC0003093D1022093D00288EC91E09093D3020C
:102CD0008093D20285EC90E09093D5028093D40249
:102CE00084EC90E09093D7028093D60280EC90E041
:102CF0009093D9028093D80281EC90E09093DB020C
:102D00008093DA0286EC90E09093DD028093DC02FF
:102D1000E4E0E093DE0273E07093DF0267E060932B
:102D2000E00255E05093E10241E04093E20230932B
:102D3000E4022093E3028CE492E09093E602809315
:102D4000E5028DEC90E09093E8028093E7028CEC32
:102D500090E09093EA028093E90288EC90E09093EF
:102D6000EC028093EB0289EC90E09093EE0280936A
:102D7000ED028EEC90E09093F0028093EF02E093EE
:102D8000F1027093F2026093F3025093F4024093C5
:102D9000F50208950E94D10B0E9463090E94B906B2
:102DA000FDCF0F931F93CF93DF938C01EB0109C0ED
:102DB0002196D801ED91FC910190F081E02DC801A0
:102DC000099568816623A1F7DF91CF911F910F913B
:102DD0000895EF92FF920F931F93CF93DF938C018F
:102DE0007B01EA010CC0D7016D917D01D801ED9105
:102DF000FC910190F081E02DC80109952197209761
:102E000091F7DF91CF911F910F91FF90EF9008956F
:102E1000DC01ED91FC910280F381E02D099508958C
:102E2000A8D008F481E008950CD0DEC0D6D040F0E0
:102E3000CDD030F021F45F3F19F0BFC0511108C16F
:102E4000C2C0E3D098F39923C9F35523B1F3951B7E
:102E5000550BBB27AA2762177307840738F09F5FBB
:102E60005F4F220F331F441FAA1FA9F333D00E2E2A
:102E70003AF0E0E830D091505040E695001CCAF797
:102E800029D0FE2F27D0660F771F881FBB1F26175C
:102E900037074807AB07B0E809F0BB0B802DBF012F
:102EA000FF2793585F4F2AF09E3F510568F085C079
:102EB000CFC05F3FECF3983EDCF38695779567953E
:102EC000B795F7959F5FC9F7880F911D96958795E0
:102ED00097F90895E1E0660F771F881FBB1F6217FF
:102EE00073078407BA0720F0621B730B840BBA0BBD
:102EF000EE1F88F7E0950895E89409C097FB3EF42B
:102F000090958095709561957F4F8F4F9F4F992336
:102F1000A9F0F92F96E9BB279395F69587957795B4
:102F20006795B795F111F8CFFAF4BB0F11F460FF74
:102F30001BC06F5F7F4F8F4F9F4F16C0882311F0CC
:102F400096E911C0772321F09EE8872F762F05C0E0
:102F5000662371F096E8862F70E060E02AF09A957B
:102F6000660F771F881FDAF7880F9695879597F970
:102F70000895990F0008550FAA0BE0E8FEEF16160A
:102F80001706E807F907C0F012161306E407F5075D
:102F900098F0621B730B840B950B39F40A2661F0D1
:102FA000232B242B252B21F408950A2609F4A14074
:102FB000A6958FEF811D811D089597F99F6780E881
:102FC00070E060E008959FEF80EC089500240A947B
:102FD0001616170618060906089500240A941216F4
:102FE0001306140605060895092E0394000C11F427
:102FF000882352F0BB0F40F4BF2B11F460FF04C0D4
:103000006F5F7F4F8F4F9F4F089557FD9058440F2C
:10301000551F59F05F3F71F04795880F97FB991F37
:1030200061F09F3F79F087950895121613061406F4
:10303000551FF2CF4695F1DF08C016161706180681
:10304000991FF1CF86957105610508940895E8945C
:10305000BB2766277727CB0197F908958ADF08F405
:103060008FEF08950BD0C0CFB1DF28F0B6DF18F096
:10307000952309F0A2CFA7CF1124EACFC6DFA0F392
:10308000959FD1F3950F50E0551F629FF001729FFD
:10309000BB27F00DB11D639FAA27F00DB11DAA1F1C
:1030A000649F6627B00DA11D661F829F2227B00D69
:1030B000A11D621F739FB00DA11D621F839FA00DF4
:1030C000611D221F749F3327A00D611D231F849F44
:1030D000600D211D822F762F6A2F11249F5750409B
:1030E0008AF0E1F088234AF0EE0FFF1FBB1F661F36
:1030F000771F881F91505040A9F79E3F510570F0EF
:103100005CCFA6CF5F3FECF3983EDCF386957795D6
:103110006795B795F795E7959F5FC1F7FE2B880FE9
:10312000911D9695879597F90895629FD001739F99
:10313000F001829FE00DF11D649FE00DF11D929F53
:10314000F00D839FF00D749FF00D659FF00D992792
:10315000729FB00DE11DF91F639FB00DE11DF91FB6
:10316000BD01CF011124089597FB092E07260AD02F
:1031700077FD04D049D006D000201AF470956195EF
:103180007F4F0895F6F7909581959F4F0895A1E29E
:103190001A2EAA1BBB1BFD010DC0AA1FBB1FEE1FD1
:1031A000FF1FA217B307E407F50720F0A21BB30B1C
:1031B000E40BF50B661F771F881F991F1A9469F798
:1031C00060957095809590959B01AC01BD01CF01F4
:1031D000089597FB092E05260ED057FD04D0D7DFA2
:1031E0000AD0001C38F450954095309521953F4FFA
:1031F0004F4F5F4F0895F6F79095809570956195C4
:103200007F4F8F4F9F4F0895AA1BBB1B51E107C0F3
:10321000AA1FBB1FA617B70710F0A61BB70B881F66
:10322000991F5A95A9F780959095BC01CD010895F5
:10323000EE0FFF1F0590F491E02D09942F923F921D
:103240004F925F926F927F928F929F92AF92BF92B6
:10325000CF92DF92EF92FF920F931F93CF93DF9362
:10326000CDB7DEB7CA1BDB0B0FB6F894DEBF0FBEBF
:10327000CDBF09942A88398848885F846E847D840C
:103280008C849B84AA84B984C884DF80EE80FD800E
:103290000C811B81AA81B981CE0FD11D0FB6F89484
:0E32A000DEBF0FBECDBFED010895F894FFCF45
:1032AE002573202573202573002573202533642074
:1032BE002573202532640020204C65616643414E03
:1032CE00200076312E330057616974696E6720666F
:1032DE006F722043414E0053657269616C20696EB6
:1032EE0069742020202000496E697420436F6D7030
:1032FE006C65746520200001000000005C0AD11688
:10330E00E9160000400014005400000000004B16A7
:04331E00D116E916C5
:00000001FF
